S0120000536574536572766F49442E737265634A
S11300000C943E000C9450000C9450000C9450003E
S11300100C9450000C9450000C9450000C9450001C
S11300200C9450000C9450000C9450000C9450000C
S11300300C9450000C9450000C9450000C945000FC
S11300400C9450000C9450000C9450000C945000EC
S11300500C94AF000C94DD000C9450000C945000F0
S11300600C9450000C9450000C9450000C945000CC
S11300700C9407010C9435010C94500011241FBEFC
S1130080CFEFD0E1DEBFCDBF21E0A0E0B1E001C001
S11300901D92AA38B207E1F70E948E000C948D01DC
S11300A00C940000CF93C82F8FEF0E9478018FEF3C
S11300B00E9478018EEF0E94780184E00E9478010A
S11300C083E00E94780183E00E9478018C2F0E94D3
S11300D0780188E08C0F80950E947801CF91089573
S11300E0CF93C82F8FEF0E9478018FEF0E94780181
S11300F084E30E94780184E00E94780183E00E94F6
S1130100780189E10E9478018C2F0E94780184E5AE
S11301108C0F80950E947801CF91089580E090E043
S11301200E945F01789484E30E94520081E00E945F
S113013070002FEF83ED90E3215080409040E1F771
S113014000C0000080E00E9470002FEF83ED90E378
S1130150215080409040E1F700C00000E7CF1F929B
S11301600F920FB60F9211242F938F939F93EF93B7
S1130170FF938091C0002091C6008C71E0914701EB
S1130180EF5FEF7190914601E91739F0E093470171
S1130190F0E0E65BFE4F208301C082E090914501D0
S11301A0892B80934501FF91EF919F918F912F911E
S11301B00F900FBE0F901F9018951F920F920FB6BD
S11301C00F9211248F939F93EF93FF939091490182
S11301D080914801981769F0E0914801EF5FEF7151
S11301E0E0934801F0E0E659FE4F80818093C60019
S11301F005C0E1ECF0E080818F7D8083FF91EF9179
S11302009F918F910F900FBE0F901F9018951F9282
S11302100F920FB60F9211242F938F939F93EF9306
S1130220FF938091C8002091CE008C71E09102016F
S1130230EF5FEF7190910101E91739F0E09302014A
S1130240F0E0EB5FFE4F208301C082E0909100015B
S1130250892B80930001FF91EF919F918F912F91B2
S11302600F900FBE0F901F9018951F920F920FB60C
S11302700F9211248F939F93EF93FF939091040116
S113028080910301981769F0E0910301EF5FEF712A
S1130290E0930301F0E0EB5DFE4F80818093CE009C
S11302A005C0E9ECF0E080818F7D8083FF91EF91C0
S11302B09F918F910F900FBE0F901F9018951092E1
S11302C0040110920301109202011092010199237A
S11302D01CF422E02093C80090789093CD00809382
S11302E0CC0088E98093C90086E08093CA00089511
S11302F0209104012F5F2F71909103012917E1F3DD
S1130300E22FF0E0EB5DFE4F808320930401E9ECE3
S1110310F0E08081806280830895F894FFCF2E
S9030000FC
