S018000041583138536572766F436F6E74726F6C2E737265631A
S11300000C9445000C9462000C9462000C94620001
S11300100C9462000C9462000C9462000C946200D4
S11300200C9462000C9462000C9462000C946200C4
S11300300C9462000C9462000C9462000C946200B4
S11300400C9462000C9462000C9462000C946200A4
S11300500C9428020C9456020C9462000C946200D6
S11300600C9462000C9462000C9462000C94620084
S11300700C94C2020C94F0020C946200C601CB01F1
S1130080CF01E201D401D701E00111241FBECFEF5B
S1130090D0E1DEBFCDBF11E0A0E0B1E0EEE0FDE0D5
S11300A002C005900D92AA3AB107D9F722E0AAEA54
S11300B0B1E001C01D92AA33B207E1F70E946400C7
S11300C00C9485060C940000CF93DF9300D0CDB739
S11300D0DEB780E090E00E94800280E090E00E9421
S11300E01A0380E091E090933702809336028FEFF9
S11300F084B98AE08AB978948EE091E00E94A903D9
S11301004AEF50E060E070E08EEF0E94150202E2D8
S113011011E085E191E00E94AE028BE191E00E9442
S1130120A9032FEF83ED90E3215080409040E1F745
S113013000C0000022E0AE014F5F5F4F64E287E33E
S11301400E9421018A811F928F9389811F928F932C
S11301501F930F930E9495030F900F900F900F9091
S11301600F900F90D6CF6C5F860F820F211531054B
S113017069F0E0E0F0E090E0E40FF51F6081860FA5
S11301809F5FE92FF0E0E217F307B0F3809508953D
S11301900F934B5F640F860F800F002349F0422FAB
S11301A0E22FF32F9191890F9E2F941B9017D0F378
S11301B080950F910895CF92DF92EF92FF920F9363
S11301C01F93CF93DF93F82EE62EC42ED52E022F45
S11301D00E9477030E9489038FEF0E9462038FEFCE
S11301E00E9462038F2D0E94620383E0800F0E94AD
S11301F0620383E00E9462038E2D0E946203002347
S113020049F0CC2DDD2D10E089910E9462031F5F1F
S11302101013FACF202F30E04C2D5D2D6E2D8F2D35
S11302200E94B3000E9462030E947D030E94830324
S1130230DF91CF911F910F91FF90EF90DF90CF90BE
S113024008952F923F924F925F926F927F928F9276
S11302509F92AF92BF92CF92DF92EF92FF920F9351
S11302601F93CF93DF9300D01F92CDB7DEB7F82E44
S1130270862E5A01622E0E943F030E9477030E9439
S1130280890385E0880D8F0D082F00951F920F9329
S11302901F928F921F9282E08F931F9283E08F931D
S11302A01F92FF921F928FEF8F931F928F9325E3DC
S11302B031E03F932F930E949503802F0E946203A5
S11302C00E947D030E9483030E943F038FEF0E94DC
S11302D062038FEF0E94620381E00E94620384E064
S11302E00E94620382E00E94620380E00E94620333
S11302F083E00E94620385EF0E9462030E948303ED
S113030083ED90E30197F1F700C0000094E09A9523
S1130310F1F70FB6F894DEBF0FBECDBF912C0F2EB0
S1130320F0E6CF2EF1E0DF2EF02D0F2EF2E7EF2EC8
S1130330F1E0FF2EF02D77247394512C4DC00E94D0
S113034033039F938F93DF92CF920E9495030E9471
S113035044039B838A830A811F921F938A819B8112
S113036099279F938F93FF92EF920E9495030FB664
S1130370F894DEBF0FBECDBF812F90E0873091058A
S113038058F5FC01E25CFF4F0C948F03172D0F3FCF
S113039019F1152D21C00F3FB9F412E01DC00F3F14
S11303A0A9F4972C152D18C04A8015E015C06214C5
S11303B080F0F501E20DF11D9A81908323940CC025
S11303C0972C0AC014E008C0152D06C03A8013E02B
S11303D003C0EA81E98316E00E9433031816190664
S11303E00CF4ADCF062D9501482D642D832D0E946C
S11303F0C800F9818F1711F099249394892D0F90D7
S11304000F900F90DF91CF911F910F91FF90EF907C
S1130410DF90CF90BF90AF909F908F907F906F9020
S11304205F904F903F902F900895CF93DF9300D02B
S1130430CDB7DEB749835A8322E0AE014F5F5F4FE9
S113044060E20E94DB000F900F90DF91CF9108953E
S11304501F920F920FB60F9211242F938F939F9395
S1130460EF93FF938091C0002091C6008C71E091BE
S1130470F101EF5FEF719091F001E91739F0E0932A
S1130480F101F0E0EC50FE4F208301C082E0909136
S1130490EF01892B8093EF01FF91EF919F918F9151
S11304A02F910F900FBE0F901F9018951F920F92CF
S11304B00FB60F9211248F939F93EF93FF93909114
S11304C0F3018091F201981769F0E091F201EF5F76
S11304D0EF71E093F201F0E0EC5EFD4F80818093D8
S11304E0C60005C0E1ECF0E080818F7D8083FF9140
S11304F0EF919F918F910F900FBE0F901F901895C1
S11305001092F3011092F2011092F1011092F00195
S113051099231CF422E02093C00090789093C500A6
S11305208093C40088E98093C10086E08093C20070
S113053008952091F3012F5F2F719091F2012917F3
S1130540E1F3E22FF0E0EC5EFD4F80832093F301B2
S1130550E1ECF0E08081806280830895CF93DF93A3
S1130560EC018881882331F021960E9499028991B7
S11305708111FBCFDF91CF9108950E94990280E011
S113058090E008951F920F920FB60F9211242F93AB
S11305908F939F93EF93FF938091C8002091CE0097
S11305A08C71E091AC01EF5FEF719091AB01E917B1
S11305B039F0E093AC01F0E0E155FE4F208301C037
S11305C082E09091AA01892B8093AA01FF91EF9177
S11305D09F918F912F910F900FBE0F901F901895A0
S11305E01F920F920FB60F9211248F939F93EF9344
S11305F0FF939091AE018091AD01981769F0E0915D
S1130600AD01EF5FEF71E093AD01F0E0E153FE4F18
S113061080818093CE0005C0E9ECF0E080818F7D7D
S11306208083FF91EF919F918F910F900FBE0F9058
S11306301F9018951092AE011092AD011092AC016A
S11306401092AB0199231CF422E02093C800907807
S11306509093CD008093CC0088E98093C90086E014
S11306608093CA0008958091AC012091AB0190E081
S113067001968F719927821B910901970895109211
S1130680AC011092AB0108959091AC018091AB0143
S11306909817A9F09091AB019F5F9F71E92FF0E04B
S11306A0E155FE4F20818091AA019093AB011092F5
S11306B0AA0190E0982F8827820F911D089580E069
S11306C091E008952091AE012F5F2F719091AD01BB
S11306D02917E1F3E22FF0E0E153FE4F80832093EA
S11306E0AE01E9ECF0E08081806280830895E9EC5A
S11306F0F0E08081886080830895E9ECF0E08081F7
S1130700877F80830895E9ECF0E0808180618083B5
S11307100895E9ECF0E080818F7E80830895EE0FE8
S1130720FF1F0590F491E02D0994A0E0B0E0EBE9FF
S1130730F3E00C945E06FE01359661917191AF0170
S113074080913602909137020E94D603E2E00C9425
S11307507A060F931F93CF93DF93E0913602F091C3
S11307603702238121FF1BC0EC0100E010E08991D6
S11307706091360270913702DB011896ED91FC917D
S11307801997882331F00995892B89F30FEF1FEF0F
S1130790EECF8AE00995892B11F4C80102C08FEFCE
S11307A09FEFDF91CF911F910F910895ACE0B0E0DE
S11307B0ECEDF3E00C944E067C016B018A01FC0124
S11307C017821682838181FFBDC1CE0101964C013F
S11307D0F7019381F60193FD859193FF81916F0158
S11307E0882309F4ABC1853239F493FD859193FFD5
S11307F081916F01853229F4B70190E00E94BE0512
S1130800E7CF512C312C20E02032A0F48B3269F058
S113081030F4803259F0833269F420612CC08D3277
S113082039F0803339F4216026C02260246023C06B
S1130830286021C027FD27C030ED380F3A3078F406
S113084026FF06C0FAE05F9E300D1124532E13C01C
S11308508AE0389E300D1124332E20620CC08E3273
S113086021F426FD6BC1206406C08C3611F4206887
S113087002C0883641F4F60193FD859193FF81917E
S11308806F018111C1CF982F9F7D9554933028F427
S11308900C5F1F4FFFE3F9830DC0833631F08337BC
S11308A071F0833509F05BC022C0F801808189832F
S11308B00E5F1F4F44244394512C540115C038013A
S11308C0F2E06F0E711CF801A080B18026FF03C016
S11308D0652D70E002C06FEF7FEFC5012C870E9489
S11308E0B3052C0183012C852F77222E17C03801E4
S11308F0F2E06F0E711CF801A080B18026FF03C0E6
S1130900652D70E002C06FEF7FEFC5012C870E9458
S1130910A8052C012C852068222E830123FC1BC0F2
S1130920832D90E048165906B0F4B70180E290E0B8
S11309300E94BE053A94F4CFF50127FC859127FE69
S113094081915F01B70190E00E94BE0531103A9495
S1130950F1E04F1A51084114510471F7E5C084368F
S113096011F0893639F5F80127FF07C060817181DC
S1130970828193810C5F1F4F08C060817181882739
S113098077FD8095982F0E5F1F4F2F76B22E97FF1D
S113099009C090958095709561957F4F8F4F9F4FBB
S11309A02068B22E2AE030E0A4010E94F005A82EAF
S11309B0A81844C0853729F42F7EB22E2AE030E0EF
S11309C025C0F22FF97FBF2E8F36C1F018F4883579
S11309D079F0B4C0803719F0883721F0AFC02F2FD9
S11309E02061B22EB4FE0DC08B2D8460B82E09C0D8
S11309F024FF0AC09F2F9660B92E06C028E030E07D
S1130A0005C020E130E002C020E132E0F801B7FE89
S1130A1007C060817181828193810C5F1F4F06C082
S1130A206081718180E090E00E5F1F4FA4010E94FD
S1130A30F005A82EA818FB2DFF77BF2EB6FE0BC01D
S1130A402B2D2E7FA51450F4B4FE0AC0B2FC08C0AE
S1130A502B2D2E7E05C07A2C2B2D03C07A2C01C0A1
S1130A60752C24FF0DC0FE01EA0DF11D8081803339
S1130A7011F4297E09C022FF06C07394739404C044
S1130A80822F867809F0739423FD13C020FF06C0DB
S1130A905A2C731418F4530C5718732C731468F4E9
S1130AA0B70180E290E02C870E94BE0573942C85E8
S1130AB0F5CF731410F4371801C0312C24FF12C081
S1130AC0B70180E390E02C870E94BE052C8522FFAD
S1130AD017C021FF03C088E590E002C088E790E0DA
S1130AE0B7010CC0822F867859F021FD02C080E244
S1130AF001C08BE227FD8DE2B70190E00E94BE05A4
S1130B00A51438F4B70180E390E00E94BE055A941E
S1130B10F7CFAA94F401EA0DF11D8081B70190E0AA
S1130B200E94BE05A110F5CF332009F451CEB701C0
S1130B3080E290E00E94BE053A94F6CFF7018681E8
S1130B40978102C08FEF9FEF2C96E2E10C946A0626
S1130B50FC010590615070400110D8F78095909584
S1130B608E0F9F1F0895FC01615070400190011089
S1130B70D8F7809590958E0F9F1F08950F931F931C
S1130B80CF93DF93182F092FEB018B8181FD03C0D5
S1130B908FEF9FEF20C082FF10C04E815F812C81B8
S1130BA03D81421753077CF4E881F9819F012F5F4F
S1130BB03F4F39832883108306C0E885F985812F48
S1130BC00995892B29F72E813F812F5F3F4F3F8362
S1130BD02E83812F902FDF91CF911F910F91089534
S1130BE0FA01AA27283051F1203181F1E8946F935A
S1130BF06E7F6E5F7F4F8F4F9F4FAF4FB1E03ED000
S1130C00B4E03CD0670F781F891F9A1FA11D680F9D
S1130C10791F8A1F911DA11D6A0F711D811D911DD0
S1130C20A11D20D009F468943F912AE0269F112445
S1130C303019305D3193DEF6CF010895462F4770A9
S1130C40405D4193B3E00FD0C9F7F6CF462F4F7004
S1130C50405D4A3318F0495D31FD4052419302D062
S1130C60A9F7EACFB4E0A695979587957795679508
S1130C70BA95C9F700976105710508959B01AC0108
S1130C800A2E06945795479537952795BA95C9F72F
S1130C90620F731F841F951FA01D08952F923F920A
S1130CA04F925F926F927F928F929F92AF92BF9278
S1130CB0CF92DF92EF92FF920F931F93CF93DF9324
S1130CC0CDB7DEB7CA1BDB0B0FB6F894DEBF0FBE81
S1130CD0CDBF09942A88398848885F846E847D84CE
S1130CE08C849B84AA84B984C884DF80EE80FD80D0
S1130CF00C811B81AA81B981CE0FD11D0FB6F89446
S1110D00DEBF0FBECDBFED010895F894FFCF06
S1130D0E0000000300000000BD0200000000696541
S1130D1E7473310D0073616E6461006965747332AE
S1130D2E0D005265616420307825782030203078AB
S1130D3E25780D0A00524541443A20307825782012
S1130D4E3078257820307825782030782578203032
S1130D5E782578203078257820307825780D0A008B
S1130D6E4275666665722073697A653A2025640D4C
S1130D7E0A005245414420283078257829205354BE
S1130D8E41544520282564290053657420706F73DF
S1130D9E6974696F6E3A2025642028307825782C82
S10D0DAE2030782578290D0A000092
S9030000FC
