:100000000C9445000C9462000C9462000C94620005
:100010000C9462000C9462000C9462000C946200D8
:100020000C9462000C9462000C9462000C946200C8
:100030000C9462000C9462000C9462000C94AD026B
:100040000C9462000C9462000C9462000C946200A8
:100050000C94D2020C9400030C9462000C94620085
:100060000C9462000C9462000C9462000C94620088
:100070000C945D030C948B030C946200B901BF01D6
:10008000C401B601CB01CE01ED0111241FBECFEF9B
:10009000D0E1DEBFCDBF11E0A0E0B1E0EEE8FEE0D0
:1000A00002C005900D92AA3DB107D9F722E0AAED52
:1000B000B1E001C01D92A638B207E1F70E946400CA
:1000C0000C9445070C940000CF93DF9300D0CDB77C
:1000D000DEB789E190E00E942A0380E090E00E9470
:1000E000B50380E091E0909383028093820278943C
:1000F0008EE091E00E9460044FEF53E060E070E01A
:1001000087E30E942A022FEF80E792E0215080408F
:100110009040E1F700C0000022E0AE014F5F5F4F6A
:100120006EE087E30E9443016A8189810E945A023E
:100130007F936F938BE191E09F938F930E944A048A
:100140000E9463020F900F900F900F9080E090E05C
:10015000DC0107E311E06C017D012FEFC21AD20A26
:10016000E20AF20ABF93AF939F938F931F930F936B
:100170000E944A048FEF99EF20E081509040204088
:10018000E1F700C000000F900F900F900F900F90BC
:100190000F90D701C601DFCFD9016A5F860F820FAA
:1001A000109769F0E0E0F0E090E0E40FF51F308197
:1001B000830F9F5FE92FF0E0EA17FB07B0F380950C
:1001C00008950F934B5F640F860F800F002369F033
:1001D000F9010150402F50E04F5F5F4F240F351F52
:1001E0009191890FE217F307D9F780950F91089540
:1001F000BF92CF92DF92EF92FF920F931F93CF9314
:10020000DF93C82EB62E7A01D22E0E943E040E94A1
:10021000DA030E941A048FEF0E94FD038FEF0E9401
:10022000FD038C2D0E94FD0383E08D0D0E94FD03D4
:1002300083E00E94FD038B2D0E94FD03DD2071F001
:10024000E7010FEF0D0D10E00F5F1F4F0E0D1F1D8B
:1002500089910E94FD03C017D107D1F72D2D30E001
:10026000A7016B2D8C2D0E94CC000E94FD030E94E3
:100270002604DF91CF911F910F91FF90EF90DF90B7
:10028000CF90BF9008952F923F924F925F926F92BE
:100290007F928F929F92AF92BF92CF92DF92EF9216
:1002A000FF920F931F93CF93DF9300D01F92CDB790
:1002B000DEB7182F962E1A01022F0E94DA030E9431
:1002C0001A040E943E048FEF0E94FD038FEF0E94EC
:1002D000FD03812F0E94FD0384E00E94FD0382E064
:1002E0000E94FD03892D0E94FD03802F0E94FD03C3
:1002F00086E0890D800F810F80950E94FD030E948A
:1003000026040E9438040E94CE03892BE1F3B12C0D
:10031000512CA12C612C1982712C10E00F2EF1E4CC
:10032000CF2EF1E0DF2EF02D812C62C00E94DF0382
:100330009B838A834A807C01FF24FF92EF921F9265
:100340001F93DF92CF920E944A040F900F900F905C
:100350000F900F900F90812F90E08730910508F05B
:1003600047C0FC01E25CFF4F0C9444046A8014E037
:100370003FC011E08FEF4816D9F1182D39C09FEF1B
:10038000491671F1182D34C0AFEF4A1659F1BA81F0
:10039000B98313E02DC0AA8015E02AC0272D30E0D4
:1003A000862D90E002972817390704F5FF92EF9207
:1003B0001F927F92A2E5B1E0BF93AF930E944A04DF
:1003C000F101E70DF11D8A8180830F900F900F904E
:1003D0000F900F900F9073940BC0BB24B39408C080
:1003E00012E006C0BB24B394182D02C05A8016E058
:1003F0000E94CE03892B09F099CF9101492D6A2DD6
:1004000089810E94E100851511F0BB24B3941F92ED
:10041000AF9284E691E09F938F930E944A040F90DD
:100420000F900F900F908B2D0F900F900F90DF91EA
:10043000CF911F910F91FF90EF90DF90CF90BF90E1
:10044000AF909F908F907F906F905F904F903F9074
:100450002F900895FF920F931F93CF93DF9300D0B7
:10046000CDB7DEB7F82E4983052F162F272F332758
:100470000A831F920F931F924F935F934F9322E92A
:1004800031E03F932F930E944A0422E0AE014F5F78
:100490005F4F6EE08F2D0E94F8000FB6F894DEBF1C
:1004A0000FBECDBF0F900F90DF91CF911F910F9195
:1004B000FF90089570E0762F6627682B072E000CBA
:1004C000880B990B08951092740210927502109285
:1004D00076021092770210926C0210926D021092C6
:1004E0006E0210926F0210927802109279021092AE
:1004F0007A0210927B0210926402109265021092AE
:1005000066021092670210927C0210927D02109295
:100510007E0210927F02109270021092710210926D
:100520007202109273021092680210926902109285
:100530006A0210926B0210928000E1E8F0E0808184
:1005400085608083EFE6F0E0808181608083109297
:10055000850010928400789408951F920F920FB630
:100560000F9211248F939F93AF93BF938091740246
:1005700090917502A0917602B09177020196A11D2B
:10058000B11D8093740290937502A0937602B0938C
:100590007702BF91AF919F918F910F900FBE0F90F7
:1005A0001F9018951F920F920FB60F9211242F9340
:1005B0008F939F93EF93FF938091C0002091C6008B
:1005C0008C71E0912102EF5FEF7190912002E917A9
:1005D00039F0E0932102F0E0EC5DFD4F208301C093
:1005E00082E090911F02892B80931F02FF91EF916F
:1005F0009F918F912F910F900FBE0F901F90189584
:100600001F920F920FB60F9211248F939F93EF9327
:10061000FF939091230280912202981769F0E09154
:100620002202EF5FEF71E0932202F0E0EC5BFD4FFE
:1006300080818093C60005C0E1ECF0E080818F7D71
:100640008083FF91EF919F918F910F900FBE0F903C
:100650001F901895109223021092220210922102EC
:100660001092200299231CF422E02093C00090787D
:100670009093C5008093C40088E98093C10086E010
:100680008093C2000895209123022F5F2F719091D3
:1006900022022917E1F3E22FF0E0EC5BFD4F8083AB
:1006A00020932302E1ECF0E0808180628083089552
:1006B0000E94430380E090E008951F920F920FB6CE
:1006C0000F9211242F938F939F93EF93FF93809119
:1006D000C8002091CE008C71E091DC01EF5FEF71DA
:1006E0009091DB01E91739F0E093DC01F0E0E15291
:1006F000FE4F208301C082E09091DA01892B809324
:10070000DA01FF91EF919F918F912F910F900FBE82
:100710000F901F9018951F920F920FB60F921124F1
:100720008F939F93EF93FF939091DE018091DD0172
:10073000981769F0E091DD01EF5FEF71E093DD0163
:10074000F0E0E150FE4F80818093CE0005C0E9ECDF
:10075000F0E080818F7D8083FF91EF919F918F9159
:100760000F900FBE0F901F9018951092DE011092FF
:10077000DD011092DC011092DB0199231CF422E0D0
:100780002093C80090789093CD008093CC0088E9A6
:100790008093C90086E08093CA0008958091DC01AF
:1007A0002091DB0190E001968F719927821B9109BE
:1007B000019708951092DE011092DD010895909145
:1007C000DC018091DB019817A9F09091DB019F5F1C
:1007D0009F71E92FF0E0E152FE4F20818091DA0114
:1007E0009093DB011092DA0190E0982F8827820F16
:1007F000911D089580E091E008952091DE012F5F22
:100800002F719091DD012917E1F3E22FF0E0E15023
:10081000FE4F80832093DE01E9ECF0E0808180626E
:1008200080830895209123029091220281E0291370
:1008300080E00895E9ECF0E080818860808308958D
:10084000E9ECF0E08081877F808308950E941204A4
:100850008823E1F3E8ECF0E080818670E9F78FE827
:1008600091E00197F1F700C000000E942004089574
:10087000E9ECF0E08081806180830895E9ECF0E0AC
:1008800080818F7E80830895EE0FFF1F0590F49185
:10089000E02D0994A0E0B0E0E0E5F4E00C941E0740
:1008A000AE014B5F5F4FFA0161917191AF01809191
:1008B0008202909183020E949004E2E00C943A0735
:1008C0000F931F93CF93DF93E0918202F091830205
:1008D000238121FF1BC08C01D0E0C0E0F801819191
:1008E0008F016091820270918302DB011896ED9175
:1008F000FC911997882331F00995892B79F3DFEF63
:10090000CFEFECCF8AE00995892B19F08FEF9FEF9D
:1009100002C08D2F9C2FDF91CF911F910F910895D1
:10092000ACE0B0E0E6E9F4E00C940E077C016B016A
:100930008A01FC0117821682838181FFBDC1CE012D
:1009400001964C01F7019381F60193FD859193FF88
:1009500081916F01882309F4ABC1853239F493FD8D
:10096000859193FF81916F01853229F4B70190E061
:100970000E947806E7CF512C312C20E02032A0F4E1
:100980008B3269F030F4803259F0833269F420619F
:100990002CC08D3239F0803339F4216026C02260BA
:1009A000246023C0286021C027FD27C030ED380F08
:1009B0003A3078F426FF06C0FAE05F9E300D11242D
:1009C000532E13C08AE0389E300D1124332E20623E
:1009D0000CC08E3221F426FD6BC1206406C08C361B
:1009E00011F4206802C0883641F4F60193FD859128
:1009F00093FF81916F018111C1CF982F9F7D9554F5
:100A0000933028F40C5F1F4FFFE3F9830DC083364A
:100A100031F0833771F0833509F05BC022C0F801F3
:100A2000808189830E5F1F4F44244394512C5401CD
:100A300015C03801F2E06F0E711CF801A080B18082
:100A400026FF03C0652D70E002C06FEF7FEFC50188
:100A50002C870E946D062C0183012C852F77222E76
:100A600017C03801F2E06F0E711CF801A080B18050
:100A700026FF03C0652D70E002C06FEF7FEFC50158
:100A80002C870E9462062C012C852068222E83016F
:100A900023FC1BC0832D90E048165906B0F4B70123
:100AA00080E290E00E9478063A94F4CFF50127FCAA
:100AB000859127FE81915F01B70190E00E94780641
:100AC00031103A94F1E04F1A51084114510471F772
:100AD000E5C0843611F0893639F5F80127FF07C0E3
:100AE00060817181828193810C5F1F4F08C060819A
:100AF0007181072E000C880B990B0E5F1F4F2F760C
:100B0000722E97FF09C090958095709561957F4FE3
:100B10008F4F9F4F2068722E2AE030E0A4010E9480
:100B2000B006A82EA81844C0853729F42F7EB22E0F
:100B30002AE030E025C0F22FF97FBF2E8F36C1F0BA
:100B400018F4883579F0B4C0803719F0883721F06F
:100B5000AFC02F2F2061B22EB4FE0DC08B2D84604C
:100B6000B82E09C024FF0AC09F2F9660B92E06C078
:100B700028E030E005C020E130E002C020E132E0B2
:100B8000F801B7FE07C060817181828193810C5F9B
:100B90001F4F06C06081718180E090E00E5F1F4FA3
:100BA000A4010E94B006A82EA818FB2DFF777F2E67
:100BB00076FE0BC0372D3E7FA51450F474FE0AC09C
:100BC00072FC08C0372D3E7E05C0BA2C372D03C0FD
:100BD000BA2C01C0B52C34FF0DC0FE01EA0DF11D89
:100BE0008081803311F4397E09C032FF06C0B3948E
:100BF000B39404C0832F867809F0B39433FD13C0F7
:100C000030FF06C05A2CB31418F4530C5B18B32CE5
:100C1000B31468F4B70180E290E03C870E94780644
:100C2000B3943C85F5CFB31410F43B1801C0312CBC
:100C300034FF12C0B70180E390E03C870E94780641
:100C40003C8532FF17C031FD03C088E790E002C049
:100C500088E590E0B7010CC0832F867859F031FF0A
:100C600002C08BE201C080E237FD8DE2B70190E067
:100C70000E947806A51438F4B70180E390E00E9442
:100C800078065A94F7CFAA94F401EA0DF11D8081F9
:100C9000B70190E00E947806A110F5CF332009F447
:100CA00051CEB70180E290E00E9478063A94F6CFE8
:100CB000F7018681978102C08FEF9FEF2C96E2E1CA
:100CC0000C942A07FC010590615070400110D8F780
:100CD000809590958E0F9F1F0895FC016150704084
:100CE00001900110D8F7809590958E0F9F1F089561
:100CF0000F931F93CF93DF93FB01238121FD03C04B
:100D00008FEF9FEF28C022FF16C0468157812481B4
:100D100035814217530744F4A081B1819D012F5FB3
:100D20003F4F318320838C93268137812F5F3F4F44
:100D30003783268310C0EB01092F182F0084F1851B
:100D4000E02D0995892BE1F68E819F8101969F8385
:100D50008E83812F902FDF91CF911F910F91089556
:100D6000FA01AA27283051F1203181F1E8946F93DC
:100D70006E7F6E5F7F4F8F4F9F4FAF4FB1E03ED082
:100D8000B4E03CD0670F781F891F9A1FA11D680F20
:100D9000791F8A1F911DA11D6A0F711D811D911D53
:100DA000A11D20D009F468943F912AE0269F1124C8
:100DB0003019305D3193DEF6CF010895462F47702C
:100DC000405D4193B3E00FD0C9F7F6CF462F4F7087
:100DD000405D4A3318F0495D31FD4052419302D0E5
:100DE000A9F7EACFB4E0A69597958795779567958B
:100DF000BA95C9F700976105710508959B01AC018B
:100E00000A2E06945795479537952795BA95C9F7B1
:100E1000620F731F841F951FA01D08952F923F928C
:100E20004F925F926F927F928F929F92AF92BF92FA
:100E3000CF92DF92EF92FF920F931F93CF93DF93A6
:100E4000CDB7DEB7CA1BDB0B0FB6F894DEBF0FBE03
:100E5000CDBF09942A88398848885F846E847D8450
:100E60008C849B84AA84B984C884DF80EE80FD8052
:100E70000C811B81AA81B981CE0FD11D0FB6F894C8
:0E0E8000DEBF0FBECDBFED010895F894FFCF89
:100E8E0000000003000000005803000000005F5F38
:100E9E00524553544152545F5F0D0052656365696C
:100EAE0076656420746F72717565206C696D6974F6
:100EBE003A2025640D0A00434E543A2025640D0A4B
:100ECE0000476F7420282564293A20307825780D44
:100EDE000A004461746120282564293A203078255F
:100EEE00780D0A006572726F723A20307825780D8F
:100EFE000A0053657420706F736974696F6E3A20BF
:100F0E0025642028307825782C2030782578290DF6
:100F1E000A00546F727175652073657420746F3A90
:100F2E002025642028307825782C203078257829C3
:100F3E000D0A00546F72717565206C696D697420AD
:100F4E0073657420746F3A202564202830782578D4
:0A0F5E002C2030782578290D0A00B8
:00000001FF
