S018000041583138536572766F436F6E74726F6C2E737265631A
S11300000C943E000C945B000C945B000C945B001D
S11300100C945B000C945B000C945B000C945B00F0
S11300200C945B000C945B000C945B000C945B00E0
S11300300C945B000C945B000C945B000C945B00D0
S11300400C945B000C945B000C945B000C945B00C0
S11300500C942F010C945D010C945B000C945B00D8
S11300600C945B000C945B000C945B000C945B00A0
S11300700C94BA010C94E8010C945B0011241FBE8B
S1130080CFEFD0E1DEBFCDBF11E0A0E0B1E0EAE107
S1130090FAE002C005900D92A238B107D9F722E028
S11300A0A2E8B1E001C01D92A231B207E1F70E94BB
S11300B05D000C940B050C94000080E090E00E941D
S11300C0870180E090E00E94120280E091E090932A
S11300D00F0280930E0278944AEF50E060E070E0E3
S11300E08EEF0E941C0148EC50E060E070E08EEF5F
S11300F00E94EC002FEF83ED90E32150804090406C
S1130100E1F700C0000040E253E060E070E08EEFF1
S11301100E94EC002FEF83ED90E32150804090404B
S1130120E1F700C00000DFCFD9016C5F860F820FBA
S1130130109769F0E0E0F0E090E0E40FF51F308103
S1130140830F9F5FE92FF0E0EA17FB07B0F3809578
S11301500895BF92CF92DF92EF92FF920F931F9375
S1130160CF93DF93C82EB62E7A01D22E8FEF0E9442
S11301702B028FEF0E942B028C2D0E942B0283E016
S11301808D0D0E942B0283E00E942B028B2D0E9476
S11301902B02DD2071F0E7010FEF0D0D10E00F5F72
S11301A01F4F0E0D1F1D89910E942B02C017D107EE
S11301B0D1F72D2D30E0A7016B2D8C2D0E949400DA
S11301C00E942B02DF91CF911F910F91FF90EF902E
S11301D0DF90CF90BF900895FF920F931F93CF931A
S11301E0DF9300D0CDB7DEB7F82E4983052F162F45
S11301F0272F33270A831F920F931F924F935F93E6
S11302004F9322E631E03F932F930E94400222E075
S1130210AE014F5F5F4F6EE18F2D0E94A9000FB6B4
S1130220F894DEBF0FBECDBF0F900F90DF91CF913A
S11302301F910F91FF900895CF93DF9300D0CDB716
S1130240DEB749835A8322E0AE014F5F5F4F60E21D
S11302500E94A9000F900F90DF91CF9108951F92F3
S11302600F920FB60F9211242F938F939F93EF93B6
S1130270FF938091C0002091C6008C71E091C90168
S1130280EF5FEF719091C801E91739F0E093C9016C
S1130290F0E0E453FE4F208301C082E09091C70157
S11302A0892B8093C701FF91EF919F918F912F919B
S11302B00F900FBE0F901F9018951F920F920FB6BC
S11302C00F9211248F939F93EF93FF939091CB01FF
S11302D08091CA01981769F0E091CA01EF5FEF714C
S11302E0E093CA01F0E0E451FE4F80818093C600A0
S11302F005C0E1ECF0E080818F7D8083FF91EF9178
S11303009F918F910F900FBE0F901F901895109290
S1130310CB011092CA011092C9011092C80199230D
S11303201CF422E02093C00090789093C500809341
S1130330C40088E98093C10086E08093C2000895D8
S11303402091CB012F5F2F719091CA012917E1F3FE
S1130350E22FF0E0E451FE4F80832093CB01E1ECE7
S1130360F0E080818062808308950E94A00180E093
S113037090E008951F920F920FB60F9211242F93BD
S11303808F939F93EF93FF938091C8002091CE00A9
S11303908C71E0918401EF5FEF7190918301E91713
S11303A039F0E0938401F0E0E957FE4F208301C067
S11303B082E090918201892B80938201FF91EF91D9
S11303C09F918F912F910F900FBE0F901F901895B2
S11303D01F920F920FB60F9211248F939F93EF9356
S11303E0FF939091860180918501981769F0E091BF
S11303F08501EF5FEF71E0938501F0E0E955FE4F71
S113040080818093CE0005C0E9ECF0E080818F7D8F
S11304108083FF91EF919F918F910F900FBE0F906A
S11304201F901895109286011092850110928401F4
S11304301092830199231CF422E02093C800907841
S11304409093CD008093CC0088E98093C90086E026
S11304508093CA000895209186012F5F2F71909197
S113046085012917E1F3E22FF0E0E955FE4F80837F
S113047020938601E9ECF0E0808180628083089516
S1130480A0E0B0E0E6E4F2E00C94E404AE014B5FDB
S11304905F4FFA0161917191AF0180910E029091C9
S11304A00F020E945602E2E00C940005ACE0B0E0BA
S11304B0ECE5F2E00C94D4047C016B018A01FC01AC
S11304C017821682838181FFBDC1CE0101964C0142
S11304D0F7019381F60193FD859193FF81916F015B
S11304E0882309F4ABC1853239F493FD859193FFD8
S11304F081916F01853229F4B70190E00E943E0496
S1130500E7CF512C312C20E02032A0F48B3269F05B
S113051030F4803259F0833269F420612CC08D327A
S113052039F0803339F4216026C02260246023C06E
S1130530286021C027FD27C030ED380F3A3078F409
S113054026FF06C0FAE05F9E300D1124532E13C01F
S11305508AE0389E300D1124332E20620CC08E3276
S113056021F426FD6BC1206406C08C3611F420688A
S113057002C0883641F4F60193FD859193FF819181
S11305806F018111C1CF982F9F7D9554933028F42A
S11305900C5F1F4FFFE3F9830DC0833631F08337BF
S11305A071F0833509F05BC022C0F8018081898332
S11305B00E5F1F4F44244394512C540115C038013D
S11305C0F2E06F0E711CF801A080B18026FF03C019
S11305D0652D70E002C06FEF7FEFC5012C870E948C
S11305E033042C0183012C852F77222E17C0380168
S11305F0F2E06F0E711CF801A080B18026FF03C0E9
S1130600652D70E002C06FEF7FEFC5012C870E945B
S113061028042C012C852068222E830123FC1BC076
S1130620832D90E048165906B0F4B70180E290E0BB
S11306300E943E043A94F4CFF50127FC859127FEED
S113064081915F01B70190E00E943E0431103A9419
S1130650F1E04F1A51084114510471F7E5C0843692
S113066011F0893639F5F80127FF07C060817181DF
S1130670828193810C5F1F4F08C060817181072EB6
S1130680000C880B990B0E5F1F4F2F76722E97FF6D
S113069009C090958095709561957F4F8F4F9F4FBE
S11306A02068722E2AE030E0A4010E947604A82E6D
S11306B0A81844C0853729F42F7EB22E2AE030E0F2
S11306C025C0F22FF97FBF2E8F36C1F018F488357C
S11306D079F0B4C0803719F0883721F0AFC02F2FDC
S11306E02061B22EB4FE0DC08B2D8460B82E09C0DB
S11306F024FF0AC09F2F9660B92E06C028E030E080
S113070005C020E130E002C020E132E0F801B7FE8C
S113071007C060817181828193810C5F1F4F06C085
S11307206081718180E090E00E5F1F4FA4010E9400
S11307307604A82EA818FB2DFF777F2E76FE0BC01B
S1130740372D3E7FA51450F474FE0AC072FC08C015
S1130750372D3E7E05C0BA2C372D03C0BA2C01C0FC
S1130760B52C34FF0DC0FE01EA0DF11D80818033EC
S113077011F4397E09C032FF06C0B394B39404C0A7
S1130780832F867809F0B39433FD13C030FF06C07D
S11307905A2CB31418F4530C5B18B32CB31468F428
S11307A0B70180E290E03C870E943E04B3943C850C
S11307B0F5CFB31410F43B1801C0312C34FF12C030
S11307C0B70180E390E03C870E943E043C8532FF01
S11307D017C031FD03C088E790E002C088E590E0CF
S11307E0B7010CC0832F867859F031FF02C08BE229
S11307F001C080E237FD8DE2B70190E00E943E0423
S1130800A51438F4B70180E390E00E943E045A94A2
S1130810F7CFAA94F401EA0DF11D8081B70190E0AD
S11308200E943E04A110F5CF332009F451CEB70144
S113083080E290E00E943E043A94F6CFF70186816C
S1130840978102C08FEF9FEF2C96E2E10C94F004A5
S1130850FC010590615070400110D8F78095909587
S11308608E0F9F1F0895FC0161507040019001108C
S1130870D8F7809590958E0F9F1F08950F931F931F
S1130880CF93DF93FB01238121FD03C08FEF9FEF03
S113089028C022FF16C04681578124813581421722
S11308A0530744F4A081B1819D012F5F3F4F3183F1
S11308B020838C93268137812F5F3F4F3783268394
S11308C010C0EB01092F182F0084F185E02D099544
S11308D0892BE1F68E819F8101969F838E83812FE0
S11308E0902FDF91CF911F910F910895FA01AA27BC
S11308F0283051F1203181F1E8946F936E7F6E5F5F
S11309007F4F8F4F9F4FAF4FB1E03ED0B4E03CD00C
S1130910670F781F891F9A1FA11D680F791F8A1FEF
S1130920911DA11D6A0F711D811D911DA11D20D056
S113093009F468943F912AE0269F11243019305D10
S11309403193DEF6CF010895462F4770405D419301
S1130950B3E00FD0C9F7F6CF462F4F70405D4A334E
S113096018F0495D31FD4052419302D0A9F7EACF16
S1130970B4E0A6959795879577956795BA95C9F745
S113098000976105710508959B01AC010A2E069438
S11309905795479537952795BA95C9F7620F731FF1
S11309A0841F951FA01D08952F923F924F925F922E
S11309B06F927F928F929F92AF92BF92CF92DF926B
S11309C0EF92FF920F931F93CF93DF93CDB7DEB7D0
S11309D0CA1BDB0B0FB6F894DEBF0FBECDBF099464
S11309E02A88398848885F846E847D848C849B84BB
S11309F0AA84B984C884DF80EE80FD800C811B81C9
S1130A00AA81B981CE0FD11D0FB6F894DEBF0FBEF7
S10D0A10CDBFED010895F894FFCF67
S1130A1A0000000300000000B50100000000524578
S1130A2A41443A2030782578203078257820307867
S1130A3A2578203078257820307825782030782554
S1130A4A7820307825780D0A00427566666572202A
S1130A5A73697A653A2025640D0A00524541442097
S1130A6A2830782578292053544154452028256470
S1130A7A290053657420706F736974696F6E3A2024
S1130A8A25642028307825782C2030782578290D7B
S1050A9A0A004C
S9030000FC
