S018000041583138536572766F436F6E74726F6C2E737265631A
S11300000C943E000C9448000C9448000C94480056
S11300100C9448000C9448000C9448000C9448003C
S11300200C9448000C9448000C9448000C9448002C
S11300300C9448000C9448000C9448000C9448001C
S11300400C9448000C9448000C9448000C9448000C
S11300500C9448000C9448000C9448000C944800FC
S11300600C9448000C9448000C9448000C944800EC
S11300700C9448000C9448000C94480011241FBEB2
S1130080CFEFD0E1DEBFCDBF0E944A000C946100E7
S11300900C9400008FEF8AB988B92FEF33ED90E309
S11300A0215030409040E1F700C0000018B82FEF15
S11300B033ED90E3215030409040E1F700C0000060
S10900C0EBCFF894FFCF22
S9030000FC
