:100000000C943E000C945B000C945B000C945B0021
:100010000C945B000C945B000C945B000C945B00F4
:100020000C945B000C945B000C945B000C945B00E4
:100030000C945B000C945B000C945B000C945B00D4
:100040000C945B000C945B000C945B000C945B00C4
:100050000C94D3000C9401010C945B000C945B0095
:100060000C945B000C945B000C945B000C945B00A4
:100070000C9468010C9496010C945B0011241FBE33
:10008000CFEFD0E1DEBFCDBF11E0A0E0B1E0E0EE08
:10009000F3E002C005900D92AA30B107D9F721E034
:1000A000AAE0B1E001C01D92A439B207E1F70E94B5
:1000B000A0000C94EE010C940000CF93DF93D82F96
:1000C000C92F8FEF0E94D9018FEF0E94D9018EEFC7
:1000D0000E94D90185E00E94D90183E00E94D901E4
:1000E0008EE10E94D9018D2F0E94D9018C2F0E9490
:1000F000D901DC5D8D2F8C0F80950E94D901DF9195
:10010000CF910895CF93C82F8FEF0E94D9018FEF21
:100110000E94D9018EEF0E94D90184E00E94D9018A
:1001200083E00E94D90189E10E94D9018C2F0E94AD
:10013000D9018EE18C0F80950E94D901CF9108954D
:1001400080E090E00E942B0180E090E00E94C001DE
:100150008FEF84B97894C1E0C5B92FEF83ED90E3B8
:10016000215080409040E1F700C0000015B88C2F6E
:100170000E94820080E090E00E945D002FEF83EDFE
:1001800090E3215080409040E1F700C0000080E003
:1001900091E00E94590180E00E9482008FEF93E07D
:1001A0000E945D00D9CF1F920F920FB60F921124BB
:1001B0002F938F939F93EF93FF938091C000209193
:1001C000C6008C71E0915101EF5FEF719091500189
:1001D000E91739F0E0935101F0E0EC5AFE4F20832B
:1001E00001C082E090914F01892B80934F01FF91D4
:1001F000EF919F918F912F910F900FBE0F901F90B5
:1002000018951F920F920FB60F9211248F939F9300
:10021000EF93FF939091530180915201981769F0E9
:10022000E0915201EF5FEF71E0935201F0E0EC5882
:10023000FE4F80818093C60005C0E1ECF0E0808134
:100240008F7D8083FF91EF919F918F910F900FBED3
:100250000F901F9018951092530110925201109216
:1002600051011092500199231CF422E02093C00008
:1002700090789093C5008093C40088E98093C10072
:1002800086E08093C2000895209153012F5F2F7163
:10029000909152012917E1F3E22FF0E0EC58FE4F64
:1002A000808320935301E1ECF0E0808180628083C1
:1002B0000895CF93DF93EC018881882331F0219654
:1002C0000E94440189918111FBCFDF91CF91089564
:1002D0001F920F920FB60F9211242F938F939F931B
:1002E000EF93FF938091C8002091CE008C71E09134
:1002F0000C01EF5FEF7190910B01E91739F0E0937A
:100300000C01F0E0E15FFE4F208301C082E090919C
:100310000A01892B80930A01FF91EF919F918F91A0
:100320002F910F900FBE0F901F9018951F920F9254
:100330000FB60F9211248F939F93EF93FF93909199
:100340000E0180910D01981769F0E0910D01EF5FAA
:10035000EF71E0930D01F0E0E15DFE4F808180934D
:10036000CE0005C0E9ECF0E080818F7D8083FF91B5
:10037000EF919F918F910F900FBE0F901F90189546
:1003800010920E0110920D0110920C0110920B01AF
:1003900099231CF422E02093C80090789093CD001C
:1003A0008093CC0088E98093C90086E08093CA00DE
:1003B000089520910E012F5F2F7190910D01291743
:1003C000E1F3E22FF0E0E15DFE4F808320930E0128
:1003D000E9ECF0E08081806280830895F894FFCF9B
:0A03E000686F692073616E646100AC
:00000001FF
