:100000000C943E000C9450000C9450000C94500042
:100010000C9450000C9450000C9450000C94500020
:100020000C9450000C9450000C9450000C94500010
:100030000C9450000C9450000C9450000C94500000
:100040000C9450000C9450000C9450000C945000F0
:100050000C94CC000C94FA000C9450000C945000BA
:100060000C9450000C9450000C9450000C945000D0
:100070000C943D010C946B010C94500011241FBE94
:10008000CFEFD0E1DEBFCDBF21E0A0E0B1E001C005
:100090001D92AA38B207E1F70E9452000C94C301E6
:1000A0000C940000CF93DF9300D0CDB7DEB780E093
:1000B00090E00E94240180E090E00E9495018FEF83
:1000C00084B9789482E389831A8222E030E0AE0119
:1000D0004F5F5F4F6EE170E08EEF90E00E94860010
:1000E000FFCF6A5F860F820F2115310569F0E0E0CE
:1000F000F0E090E0E40FF51F6081860F9F5FE92F2D
:10010000F0E0E217F307B0F380950895CF92DF9205
:10011000EF92FF920F931F93CF93DF93F82EE62E6B
:10012000C42ED52E022F8FEF90E00E94AE018FEFEC
:1001300090E00E94AE018F2D90E00E94AE01802FD2
:1001400090E003960E94AE0183E090E00E94AE0131
:100150008E2D90E00E94AE01002351F0CC2DDD2DBC
:1001600010E0899190E00E94AE011F5F1013F9CF5B
:10017000202F30E04C2D5D2D6E2D8F2D0E947100B3
:1001800090E00E94AE01DF91CF911F910F91FF90FF
:10019000EF90DF90CF9008951F920F920FB60F92BD
:1001A00011242F938F939F93EF93FF938091C0001F
:1001B0002091C6008C71E0914701EF5FEF71909143
:1001C0004601E91739F0E0934701F0E0E65BFE4FA6
:1001D000208301C082E090914501892B80934501E5
:1001E000FF91EF919F918F912F910F900FBE0F90E4
:1001F0001F9018951F920F920FB60F9211248F9394
:100200009F93EF93FF939091490180914801981734
:1002100069F0E0914801EF5FEF71E0934801F0E091
:10022000E659FE4F80818093C60005C0E1ECF0E006
:1002300080818F7D8083FF91EF919F918F910F90AF
:100240000FBE0F901F90189510924901109248010F
:10025000109247011092460199231CF422E020934A
:10026000C00090789093C5008093C40088E9809383
:10027000C10086E08093C20008951F920F920FB6CE
:100280000F9211242F938F939F93EF93FF9380915D
:10029000C8002091CE008C71E0910201EF5FEF71F8
:1002A00090910101E91739F0E0930201F0E0EB5F72
:1002B000FE4F208301C082E090910001892B809342
:1002C0000001FF91EF919F918F912F910F900FBEA1
:1002D0000F901F9018951F920F920FB60F92112436
:1002E0008F939F93EF93FF9390910401809103016B
:1002F000981769F0E0910301EF5FEF71E09303015C
:10030000F0E0EB5DFE4F80818093CE0005C0E9EC0C
:10031000F0E080818F7D8083FF91EF919F918F919D
:100320000F900FBE0F901F9018951092040110921D
:100330000301109202011092010199231CF422E0A2
:100340002093C80090789093CD008093CC0088E9EA
:100350008093C90086E08093CA000895209104012B
:100360002F5F2F71909103012917E1F3E22FF0E045
:10037000EB5DFE4F808320930401E9ECF0E0808187
:0A038000806280830895F894FFCF97
:00000001FF
