:100000000C943E000C9450000C9450000C94500042
:100010000C9450000C9450000C9450000C94500020
:100020000C9450000C9450000C9450000C94500010
:100030000C9450000C9450000C9450000C94500000
:100040000C9450000C9450000C9450000C945000F0
:100050000C9400010C942E010C9450000C94500050
:100060000C9450000C9450000C9450000C945000D0
:100070000C9471010C949F010C94500011241FBE2C
:10008000CFEFD0E1DEBFCDBF21E0A0E0B1E001C005
:100090001D92AA38B207E1F70E9452000C94F701B2
:1000A0000C94000080E090E00E94580180E090E015
:1000B0000E94C9018FEF84B9789446E950E060E06E
:1000C00070E08EEF0E94ED0040E050E0BA018EEF4C
:1000D0000E94D9002AEA36EE86E991E021503040AC
:1000E00080409040D9F700004FEF53E060E070E0AF
:1000F0008EEF0E94D9002AEA36EE86E991E021507F
:10010000304080409040D9F70000DECF6A5F860F14
:10011000820F2115310569F0E0E0F0E090E0E40F96
:10012000F51F6081860F9F5FE92FF0E0E217F3076C
:10013000B0F380950895CF92DF92EF92FF920F93E4
:100140001F93CF93DF93F82EE62EC42ED52E022FC9
:100150008FEF0E94E2018FEF0E94E2018F2D0E943B
:10016000E20183E0800F0E94E20183E00E94E2014D
:100170008E2D0E94E201002349F0CC2DDD2D10E0F0
:1001800089910E94E2011F5F1013FACF202F30E007
:100190004C2D5D2D6E2D8F2D0E9486000E94E20158
:1001A000DF91CF911F910F91FF90EF90DF90CF9053
:1001B0000895CF93DF9300D0CDB7DEB749835A833C
:1001C00022E0AE014F5F5F4F6EE18EEF0E949B0019
:1001D0000F900F90DF91CF910895CF93DF9300D0D0
:1001E000CDB7DEB749835A8322E0AE014F5F5F4F40
:1001F00060E20E949B000F900F90DF91CF910895D5
:100200001F920F920FB60F9211242F938F939F93EB
:10021000EF93FF938091C0002091C6008C71E09114
:100220004701EF5FEF7190914601E91739F0E093D4
:100230004701F0E0E65BFE4F208301C082E0909131
:100240004501892B80934501FF91EF919F918F91FB
:100250002F910F900FBE0F901F9018951F920F9225
:100260000FB60F9211248F939F93EF93FF9390916A
:10027000490180914801981769F0E0914801EF5FCA
:10028000EF71E0934801F0E0E659FE4F80818093E2
:10029000C60005C0E1ECF0E080818F7D8083FF9196
:1002A000EF919F918F910F900FBE0F901F90189517
:1002B0001092490110924801109247011092460194
:1002C00099231CF422E02093C00090789093C500FD
:1002D0008093C40088E98093C10086E08093C200C7
:1002E00008951F920F920FB60F9211242F938F93A0
:1002F0009F93EF93FF938091C8002091CE008C7163
:10030000E0910201EF5FEF7190910101E91739F07F
:10031000E0930201F0E0EB5FFE4F208301C082E03A
:1003200090910001892B80930001FF91EF919F91A3
:100330008F912F910F900FBE0F901F9018951F92C5
:100340000F920FB60F9211248F939F93EF93FF9309
:100350009091040180910301981769F0E0910301E5
:10036000EF5FEF71E0930301F0E0EB5DFE4F808102
:100370008093CE0005C0E9ECF0E080818F7D808322
:10038000FF91EF919F918F910F900FBE0F901F9053
:10039000189510920401109203011092020110921C
:1003A000010199231CF422E02093C80090789093D7
:1003B000CD008093CC0088E98093C90086E08093CB
:1003C000CA000895209104012F5F2F7190910301BD
:1003D0002917E1F3E22FF0E0EB5DFE4F80832093DD
:1003E0000401E9ECF0E08081806280830895F89454
:0203F000FFCF3D
:00000001FF
