:100000000C943E000C945B000C945B000C945B0021
:100010000C945B000C945B000C945B000C945B00F4
:100020000C945B000C945B000C945B000C945B00E4
:100030000C945B000C945B000C945B000C945B00D4
:100040000C945B000C945B000C945B000C945B00C4
:100050000C947E000C94AC000C945B000C945B0040
:100060000C945B000C945B000C945B000C945B00A4
:100070000C9413010C9441010C945B0011241FBEDD
:10008000CFEFD0E1DEBFCDBF11E0A0E0B1E0EAEDFF
:10009000F2E002C005900D92A430B107D9F721E03B
:1000A000A4E0B1E001C01D92AE38B207E1F70E94B2
:1000B0005D000C946B010C94000087E690E00E94B8
:1000C000D6008FEF84B97894C1E0C5B92FEF83EDE6
:1000D00090E3215080409040E1F700C0000015B847
:1000E0002FEF83ED90E3215080409040E1F700C076
:1000F000000080E091E00E940401E7CF1F920F9280
:100100000FB60F9211242F938F939F93EF93FF932A
:100110008091C0002091C6008C71E0914B01EF5F8F
:10012000EF7190914A01E91739F0E0934B01F0E04B
:10013000E25BFE4F208301C082E090914901892B50
:1001400080934901FF91EF919F918F912F910F9093
:100150000FBE0F901F9018951F920F920FB60F921F
:1001600011248F939F93EF93FF9390914D01809172
:100170004C01981769F0E0914C01EF5FEF71E0934B
:100180004C01F0E0E259FE4F80818093C60005C02B
:10019000E1ECF0E080818F7D8083FF91EF919F9172
:1001A0008F910F900FBE0F901F90189510924D01D8
:1001B00010924C0110924B0110924A0199231CF4A9
:1001C00022E02093C00090789093C5008093C400F3
:1001D00088E98093C10086E08093C2000895209151
:1001E0004D012F5F2F7190914C012917E1F3E22F00
:1001F000F0E0E259FE4F808320934D01E1ECF0E006
:100200008081806280830895CF93DF93EC018881A1
:10021000882331F021960E94EF0089918111FBCF54
:10022000DF91CF9108951F920F920FB60F92112474
:100230002F938F939F93EF93FF938091C80020910A
:10024000CE008C71E0910601EF5FEF719091050196
:10025000E91739F0E0930601F0E0E75FFE4F2083F5
:1002600001C082E090910401892B80930401FF91E9
:10027000EF919F918F912F910F900FBE0F901F9034
:1002800018951F920F920FB60F9211248F939F9380
:10029000EF93FF939091080180910701981769F0FF
:1002A000E0910701EF5FEF71E0930701F0E0E75D98
:1002B000FE4F80818093CE0005C0E9ECF0E08081A4
:1002C0008F7D8083FF91EF919F918F910F900FBE53
:0A02D0000F901F901895F894FFCFCF
:0402DA00686F6900E0
:00000001FF
