S018000041583138536572766F436F6E74726F6C2E737265631A
S11300000C943E000C9450000C9450000C9450003E
S11300100C9450000C9450000C9450000C9450001C
S11300200C9450000C9450000C9450000C9450000C
S11300300C9450000C9450000C9450000C945000FC
S11300400C9450000C9450000C9450000C945000EC
S11300500C947F000C94AD000C9450000C94500050
S11300600C9450000C9450000C9450000C945000CC
S11300700C94F0000C941E010C94500011241FBE2B
S1130080CFEFD0E1DEBFCDBF21E0A0E0B1E001C001
S11300901D92AA38B207E1F70E9470000C94760111
S11300A00C940000CF93C82F8FEF0E9461018FEF53
S11300B00E9461018EEF0E94610184E00E9461014F
S11300C083E00E94610183E00E9461018C2F0E9401
S11300D0610188E08C0F80950E946101CF910895A1
S11300E080E090E00E94D70080E090E00E94480108
S11300F08FEF84B9789485E50E945200FFCF1F9258
S11301000F920FB60F9211242F938F939F93EF9317
S1130110FF938091C0002091C6008C71E09147014B
S1130120EF5FEF7190914601E91739F0E0934701D1
S1130130F0E0E65BFE4F208301C082E09091450130
S1130140892B80934501FF91EF919F918F912F917E
S11301500F900FBE0F901F9018951F920F920FB61D
S11301600F9211248F939F93EF93FF9390914901E2
S113017080914801981769F0E0914801EF5FEF71B1
S1130180E0934801F0E0E659FE4F80818093C60079
S113019005C0E1ECF0E080818F7D8083FF91EF91D9
S11301A09F918F910F900FBE0F901F9018951092F2
S11301B04901109248011092470110924601992377
S11301C01CF422E02093C00090789093C5008093A3
S11301D0C40088E98093C10086E08093C20008953A
S11301E01F920F920FB60F9211242F938F939F9308
S11301F0EF93FF938091C8002091CE008C71E09121
S11302000201EF5FEF7190910101E91739F0E0937A
S11302100201F0E0EB5FFE4F208301C082E0909189
S11302200001892B80930001FF91EF919F918F91A1
S11302302F910F900FBE0F901F9018951F920F9241
S11302400FB60F9211248F939F93EF93FF93909186
S1130250040180910301981769F0E0910301EF5FB5
S1130260EF71E0930301F0E0EB5DFE4F808180933A
S1130270CE0005C0E9ECF0E080818F7D8083FF91A2
S1130280EF919F918F910F900FBE0F901F90189533
S113029010920401109203011092020110920101C4
S11302A099231CF422E02093C80090789093CD0009
S11302B08093CC0088E98093C90086E08093CA00CB
S11302C00895209104012F5F2F7190910301291744
S11302D0E1F3E22FF0E0EB5DFE4F80832093040115
S11302E0E9ECF0E08081806280830895F894FFCF88
S9030000FC
